:100000000C94AE0E0C94DA170C940B180C943C184C
:100010000C946D180C949E180C94CF180C94001925
:100020000C9431190C94DB0E0C94DB0E0C94DB0E4B
:100030000C94DB0E0C9438A00C94DB0E0C94DB0EAD
:100040000C94DB0E0C9469730C94DB0E0C94DB0E99
:100050000C94DB0E0C94DB0E0C94737C0C94C91482
:100060000C94DB0E0C9494480C94DB0E0C94DB0E79
:100070000C94DB0E0C94DB0E0C94DB0E0C94DB0E5C
:100080000C94DB0E0C94DB0E0C94DB0E0C94DB0E4C
:100090000C94DB0E0C94DB0E0C94DB0E0C94DB0E3C
:1000A0000C94DB0E0C94DB0E0C94DB0E0C94DB0E2C
:1000B0000C94DB0E0C94DB0E0C94DB0E0C94DB0E1C
:1000C0000C94DB0E0C94DB0E0C94DB0E0C94DB0E0C
:1000D0000C94DB0E0C94DB0E0C94DB0E0C94DB0EFC
:1000E0000C94DB0E084AD73B3BCE016E84BCBFFDAF
:1000F000C12F3D6C74319ABD56833DDA3D00C77FF8
:1001000011BED9E4BB4C3E916BAAAABE0000008090
:100110003F05A84CCDB2D44EB93836A9020C50B91F
:10012000918688083CA6AAAA2ABE000000803F004B
:10013000002100240027002A002D00300033000198
:10014000010000040107010A010000220025002827
:10015000002B002E003100340002010000050108D0
:10016000010B01000020002300260029002C002F95
:100170000032000001000003010601090105050528
:1001800005070508080808020202020A0A0808040E
:10019000040404010101010101010103030303033C
:1001A000030303040707070C0C0C0C0C0C0C0C02CB
:1001B00002020206060606060606060B0B0B0B0BD2
:1001C0000B0B0B01021020200808102040102040CB
:1001D000800201020108040201010204081020400B
:1001E0008080402010080402018004020180402029
:1001F0001008040201080402010102040810204052
:100200008001020408102040800000090A02080B47
:100210000C0D0706030401000000000000000000B0
:1002200000000000000000000000000000000000CE
:10023000000000000011100F00000000000000008E
:100240000000000000000000000000000000006549
:1002500063686F3A004572726F723A0053544F50A0
:100260005045442E20005072696E7465722073747C
:100270006F707065642064756520746F206572729C
:100280006F72732E204669782074686520657272DB
:100290006F7220616E6420757365204D3939392085
:1002A000746F20726573746172742E202854656DAA
:1002B000706572617475726520697320726573650B
:1002C000742E2053657420697420616674657220F1
:1002D00072657374617274696E6729004B494C4C86
:1002E00045442E20005072696E7465722068616CFE
:1002F0007465642E206B696C6C28292063616C6CBA
:10030000656421006F6B00526573656E643A20006E
:100310002200556E6B6E6F776E20636F6D6D616E30
:10032000643A2022007A5F6D61783A20007A5F6D2E
:10033000696E3A2000795F6D61783A2000785F6DD0
:1003400061783A2000205A3A0020593A0020436F41
:10035000756E7420583A200020453A00205A3A0021
:1003600020593A00583A004649524D574152455F8C
:100370004E414D453A4D61726C696E2056313B20BD
:10038000537072696E7465722F6772626C206D6152
:100390007368757020666F722067656E36204649F7
:1003A000524D574152455F55524C3A687474703AF9
:1003B0002F2F637265617461626C656C6162732E6C
:1003C000636F6D2050524F544F434F4C5F56455210
:1003D00053494F4E3A312E30204D414348494E4506
:1003E0005F545950453A435245415441424C45208F
:1003F00044322045585452554445525F434F554E60
:10040000543A3120555549443A303030303030304C
:10041000302D303030302D303030302D30303030E5
:100420002D3030303030303030303030300A004312
:100430005245415441424C45204432204F66662E7D
:1004400000435245415441424C45204432205265BC
:100450006164792E005072696E74696E672E2E2E5B
:100460002020202020202020200020423A0020456B
:100470003A00543A0048656174696E67202E2E2E4A
:100480002020202020202020200048656174696EF3
:100490006720646F6E652E0048656174696E672021
:1004A00063616E636C65642E0020573A0020453A04
:1004B00000543A0048656174696E672E2E2E202024
:1004C0002020202020202020002042403A002040F0
:1004D0003A00202F003A00205400202F0020423AFA
:1004E00000202F006F6B20543A002569206D696E43
:1004F0002C2025692073656300456E642066696C55
:1005000065206C69737400426567696E2066696C6A
:1005100065206C697374004E6F206D6F76652E00D8
:10052000526573756D696E67207072696E740057DD
:1005300061697420666F7220757365722E2E2E00AD
:100540000A00205A3A200020593A200020583A2028
:100550000042656400435245415441424C452044A9
:10056000322052656164792E00536C6565702E2EC1
:100570002E00010101000048430000484300002311
:10058000430000A0400000A0400000A04000000088
:100590000000000000000023430000C8C20000C8A3
:1005A000C2000000000000C8420000C84200002352
:1005B000430A00207A3A200020793A200020783A35
:1005C0002000426564002000256920686F75727301
:1005D000202569206D696E7574657300446F6E65C2
:1005E000207072696E74696E672066696C6500536D
:1005F000544F505045442E20005072696E746572FD
:100600002073746F707065642064756520746F204A
:100610006572726F72732E20466978207468652047
:100620006572726F7220616E6420757365204D393A
:10063000393920746F20726573746172742E2028AA
:1006400054656D706572617475726520697320728E
:10065000657365742E205365742069742061667417
:1006600065722072657374617274696E6729006FB8
:100670006B004E6F204C696E65204E756D62657221
:10068000207769746820636865636B73756D2C20CF
:100690004C617374204C696E653A20004E6F2043A4
:1006A0006865636B73756D2077697468206C696E1B
:1006B00065206E756D6265722C204C617374204CE0
:1006C000696E653A2000636865636B73756D206DB4
:1006D00069736D617463682C204C617374204C697C
:1006E0006E653A20004C696E65204E756D626572CC
:1006F000206973206E6F74204C617374204C696E96
:1007000065204E756D6265722B312C204C617374BF
:10071000204C696E653A20004D31313000446F6ED7
:100720006520736176696E672066696C652E006F5F
:100730006B004D3239002020506C616E6E65724244
:10074000756666657242797465733A200020467258
:100750006565204D656D6F72793A20004A756C2091
:100760003233203230313500436F6D70696C65640F
:100770003A200056657273696F6E20312E302E3428
:1007800000207C20417574686F723A20004A756CB5
:1007900020323320323031352031363A33383A3353
:1007A0003300204C61737420557064617465643A41
:1007B0002000312E302E30004D61726C696E0020A9
:1007C000536F66747761726520526573657400209B
:1007D0005761746368646F672052657365740020A5
:1007E00042726F776E206F75742052657365740066
:1007F0002045787465726E616C2052657365740073
:10080000506F7765725570007374617274002200C6
:10081000656E717565696E672022002200656E71D4
:100820007565696E672022007C3C3E5E2B3D3F2F44
:100830005B5D3B2C2A225C0045313A200045303A72
:1008400020005A3A2000593A2000583A20004D53CF
:10085000312C4D53322050696E730A0024F404D9B0
:10086000201BC40C5C0E9804C4095F02650771016B
:10087000F405F900FB04B30048048700C1036900D4
:100880005803550003034500BE023A0084023100BC
:1008900053022A002902250004022000E4011C0062
:1008A000C8011900AF01170098011400840113005A
:1008B000710110006101100051010E0043010D0093
:1008C00036010B002B010B0020010B001501090064
:1008D0000C01090003010800FB000800F3000800F8
:1008E000EB000700E4000600DE000600D80006006A
:1008F000D2000600CC000500C7000500C2000500BC
:10090000BD000400B9000400B5000400B1000400FB
:10091000AD000400A9000400A5000300A20003002C
:100920009F0004009B000300980003009500020054
:1009300093000300900003008D0002008B00030071
:10094000880002008600020084000300810002008B
:100950007F0002007D0002007B000200790002009F
:1009600077000100760002007400020072000100AE
:10097000710002006F0002006D0001006C000200B7
:100980006A000100690002006700010066000100C2
:1009900065000100640002006200010061000100C6
:1009A000600001005F0002005D0001005C000100CA
:1009B0005B0001005A0001005900010058000100CD
:1009C00057000100560001005500010054000100CD
:1009D00053000000530001005200010051000100CB
:1009E000500001004F0001004E0000004E000100C9
:1009F0004D0001004C0001004B0000004B000100C5
:100A00004A000100490001004800000048000100C0
:100A100047000100460000004600010045000000BC
:100A200045000100440001004300000043000100B4
:100A300042000000420001004100000041000100AE
:100A4000400001003F0000003F0001003E000000A8
:100A50003E0001003D0000003D0001003C000000A0
:100A60003C0000003C0001003B0000003B00010096
:100A70003A0000003A00010039000000390001008E
:100A80003800000038000000380001003700000086
:100A9000370001003600000036000000360001007B
:100AA0003500000035000000350001003400000072
:100AB0003400000034000100330000003300000067
:100AC000330001003200000032000000320001005B
:100AD0003100000031000000310001003000000052
:100AE00030000000300001002F0000002F00000047
:100AF0002F0000002F0001002E0000002E0000003B
:100B00002E0001002D0000002D0000002D0000002F
:100B10002D0001002C0000002C0000002C00000023
:100B20002C0001002B0000002B0000002B00000017
:100B30002B0001002A0000002A0000002A0000000B
:100B40002A000100290000002900000029000000FF
:100B500029000000290001002800000028000000F2
:100B600028000000280000002800010027000000E5
:100B700027000000270000002700000027000100D8
:100B800026000000260000002600000026000000CD
:100B900026000100250000002500000025000000BF
:100BA00025000000250000002500010024000000B1
:100BB00024000000240000002400000024000100A4
:100BC0002300000023000000230000002300000099
:100BD0002300000023000000230001002200000089
:100BE000220000002200000022000000220000007D
:100BF000220001002100000021000000210000006F
:100C0000210000002100000021000000210001005F
:100C10002000000020000000200000002000000054
:100C20002000000020000000200000002000010043
:100C30001F0000001F0000001F0000001F00000038
:100C40001F0000001F0000001F0001001E00000028
:100C50001E0000001E0000001E00000024F4D4301E
:100C600050C38E20C2A24017828B7011127A910D50
:100C7000816CD90AA861E108C7586607615143062B
:100C80001E4B5D05C145A7041A411104093D980397
:100C9000713931034036DB0265339102D43054029E
:100CA000802E1D02632CEE01752AC501B028A0011B
:100CB000102781018F2564012B244B01E022340190
:100CC000AC211F018D200D01801FFC00841EED0052
:100CD000971DDF00B81CD200E61BC600201BBC001D
:100CE000641AB200B219A8000A19A0006A18990083
:100CF000D117910040178B00B516840031167E0085
:100D0000B31579003A157300C7146F0058146A00C0
:100D1000EE1366008813630025135E00C7125B00A4
:100D20006C12570015125400C111510070114F0080
:100D300021114B00D61049008D1047004610440089
:100D400002104200C00F4000800F3E00420F3C00E6
:100D5000060F3B00CB0E3800930E37005C0E3500BB
:100D6000270E3400F30D3200C10D3100900D30001C
:100D7000600D2E00320D2D00050D2C00D90C2B001E
:100D8000AE0C2900850C29005C0C2700350C2700CF
:100D90000E0C2600E80B2400C40B2400A00B23003B
:100DA0007D0B23005A0B2100390B2100180B20006A
:100DB000F80A1F00D90A1E00BB0A1E009D0A1D006A
:100DC000800A1D00630A1C00470A1B002C0A1B0036
:100DD000110A1A00F7091A00DD091900C4091900DF
:100DE000AB091900920917007B0918006309170065
:100DF0004C09160036091600200916000A091500CC
:100E0000F5081500E0081400CC081400B808140018
:100E1000A4081400900813007D0812006B0813004A
:100E20005808120046081200340811002308110067
:100E30001208110001081100F0071000E00710006F
:100E4000D0071000C0071000B0070F00A107100066
:100E500091070E0083070F0074070F0065070E004F
:100E600057070E0049070E003B070D002E070E0026
:100E700020070D0013070D0006070D00F9060C00F2
:100E8000ED060D00E0060C00D4060C00C8060C00B0
:100E9000BC060C00B0060C00A4060B0099060C0062
:100EA0008D060B0082060B0077060B006C060B000C
:100EB00061060A0057060B004C060A0042060A00AB
:100EC00038060A002E060A0024060A001A060A003E
:100ED0001006090007060A00FD050900F4050900CF
:100EE000EB050900E2050900D9050900D005090054
:100EF000C7050900BE050900B5050800AD050800D5
:100F0000A50509009C050800940508008C0508004B
:100F1000840508007C050800740508006C050700BE
:100F2000650508005D050700560508004E05070029
:100F30004705070040050800380507003105070090
:100F40002A050700230507001C05060016050700F3
:100F50000F0507000805060002050700FB04060050
:100F6000F5040700EE040600E8040600E2040700AA
:100F7000DB040600D5040600CF040600C904060001
:100F8000C3040600BD040600B7040600B104050052
:100F9000AC040600A6040600A00405009B0406009D
:100FA00095040500900406008A04050085040500E8
:100FB000800406007A04050075040500700405002D
:100FC0006B04050066040500610405005C0405006F
:100FD00057040500520405004D04050048040500AF
:100FE000430405003E0404003A04050035040500EE
:100FF000300404002C040500270404002304050029
:101000001E0404001A040400160405001104040060
:101010000D04040009040500040404000004040095
:10102000FC030400F8030400F4030400F0030400CC
:10103000EC030400E8030400E4030400E0030400FC
:10104000DC030400D8030400D4030400D00304002C
:10105000CC030400C8030300C50303006563686F85
:101060003A00205A3A0020593A0020583A00656E5A
:101070006473746F7073206869743A2000457272EB
:101080006F723A004572723A204D415854454D50A6
:10109000204245440054656D7065726174757265D7
:1010A0002068656174656420626564207377697483
:1010B00063686564206F66662E204D415854454D27
:1010C000502074726967676572656420212100454C
:1010D00072723A204D494E54454D50003A204578A1
:1010E00074727564657220737769746368656420CF
:1010F0006F66662E204D494E54454D5020747269DE
:101100006767657265642021004572723A204D411F
:101110005854454D50003A20457874727564657294
:10112000207377697463686564206F66662E204D4E
:10113000415854454D502074726967676572656403
:10114000202100202D20496E76616C69642065782D
:10115000747275646572206E756D6265722021000F
:1011600010003003B000870150014701F001260153
:101170009002100130030001D003F3007004E90075
:101180001005E000B005D8005006D200F006CC00F3
:101190009007C6003008C200D008BD007009B90031
:1011A000100AB500B00AB200500BAE00F00BAB0055
:1011B000900CA800300DA500D00DA200700EA0006C
:1011C000100F9D00B00F9B0050109800F01096007B
:1011D0009011940030129200D012900070138E0083
:1011E00010148C00B0148A0050158800F015870088
:1011F0009016850030178300D0178100701880008A
:1012000010197E00B0197D00501A7B00F01A7A0088
:10121000901B7800301C7700D01C7500701D740086
:10122000101E7200B01E7100501F6F00F01F6E0084
:1012300090206C0030216B00D0216A007022680081
:1012400010236700B023660050246400F02463007C
:101250009025620030266000D0265F0070275D0078
:1012600010285C00B0285B0050295900F029580074
:10127000902A5700302B5500D02B5400702C520070
:10128000102D5100B02D5000502E4E00F02E4D006C
:10129000902F4B0030304A00D0304800703146006B
:1012A00010324500B032430050334100F03340006B
:1012B00090343E0030353C00D0353A00703638006E
:1012C00010373600B037340050383200F0382F0075
:1012D00090392D00303A2A00D03A2700703B240084
:1012E000103C2000B03C1C00503D1700F03D1100A8
:1012F000903E0A00303F0000504944204175746F11
:1013000074756E652066696E697368656421205026
:10131000757420746865204B702C204B6920616EB9
:1013200064204B6420636F6E7374616E7473206904
:101330006E746F20436F6E66696775726174696F52
:101340006E2E6800504944204175746F74756E6547
:10135000206661696C6564212074696D656F7574C0
:101360000020403A006F6B20543A006F6B20423AE5
:1013700000504944204175746F74756E6520666134
:10138000696C6564212054656D7065726174757255
:101390006520746F6F206869676800204B643A208D
:1013A00000204B693A2000204B703A200020436C0B
:1013B000617369632050494420002054753A20002D
:1013C000204B753A2000206D61783A2000206D692D
:1013D0006E3A200020643A200020626961733A204E
:1013E0000010006003B000940150015101F0012E83
:1013F000019002170130030601D003F9007004EEDA
:10140000001005E500B005DD005006D700F006D05D
:10141000009007CB003008C600D008C1007009BD9D
:1014200000100AB900B00AB500500BB200F00BAEC4
:1014300000900CAB00300DA800D00DA600700EA3DC
:1014400000100FA000B00F9E0050109B00F01099EC
:10145000009011970030129500D0129300701391F4
:101460000010148F00B0148D0050158B00F01589FA
:10147000009016870030178500D0178400701882FE
:101480000010198000B0197F00501A7D00F01A7CFE
:1014900000901B7A00301C7800D01C7700701D75FE
:1014A00000101E7400B01E7300501F7100F01F70FA
:1014B0000090206E0030216D00D0216B0070226AF8
:1014C0000010236900B023670050246600F02464F4
:1014D000009025630030266200D026600070275FF0
:1014E0000010285D00B0285C0050295B00F02959ED
:1014F00000902A5800302B5600D02B5500702C54E9
:1015000000102D5200B02D5100502E4F00F02E4EE5
:1015100000902F4C0030304A00D0304900703147E5
:101520000010324600B032440050334200F03340E5
:101530000090343F0030353D00D0353B00703639E7
:101540000010373700B037340050383200F03830F0
:101550000090392D00303A2A00D03A2700703B2401
:1015600000103C2000B03C1C00503D1700F03D1125
:1015700000903E0A004D383420582059205A20450A
:10158000006563686F3A0043616E6E6F7420656E2C
:10159000746572207375626469723A20004D32344A
:1015A000004D3233202573006175746F25692E67F5
:1015B000004572726F723A006572726F72207772B4
:1015C0006974696E6720746F2066696C65004E6F80
:1015D00074205344207072696E74696E67002F0026
:1015E0005344207072696E74696E67206279746505
:1015F00020002E0044656C6574696F6E2066616919
:101600006C65642C2046696C653A200046696C65FF
:101610002064656C657465643A002E006F70656EB9
:10162000206661696C65642C2046696C653A20000F
:1016300057726974696E6720746F2066696C653AC9
:1016400020002E006F70656E206661696C65642CE9
:101650002046696C653A20002E006F70656E20662A
:1016600061696C65642C2046696C653A20004669A6
:101670006C652073656C6563746564002053697ADA
:10168000653A200046696C65206F70656E65643A46
:1016900020002E006F70656E206661696C65642C99
:1016A0002046696C653A20004E6F7720667265733C
:1016B000682066696C653A20004E6F7720646F6918
:1016C0006E672066696C653A20002220706F730097
:1016D0002220706172656E743A2200535542524F57
:1016E0005554494E452043414C4C20746172676506
:1016F000743A2200747279696E6720746F20636196
:101700006C6C207375622D67636F64652066696C0D
:101710006573207769746820746F6F206D616E79CE
:10172000206C6576656C732E204D4158206C657673
:10173000656C2069733A0053442063617264206FC2
:101740006B006F70656E526F6F74206661696C65B7
:101750006400766F6C756D652E696E6974206661C4
:10176000696C656400534420696E69742066616920
:101770006C006563686F3A0048617264636F64650A
:10178000642044656661756C742053657474696E79
:101790006773204C6F616465640053746F72656495
:1017A0002073657474696E677320726574726965FD
:1017B00076656400206265645F6C6576656C5B329B
:1017C0005D5B325D00206265645F6C6576656C5BB5
:1017D000325D5B315D00206265645F6C6576656CCF
:1017E0005B325D5B305D00206265645F6C657665D1
:1017F0006C5B315D5B325D00206265645F6C6576B9
:10180000656C5B315D5B315D00206265645F6C65BA
:1018100076656C5B315D5B305D00206265645F6C9A
:101820006576656C5B305D5B325D00206265645F90
:101830006C6576656C5B305D5B315D002062656474
:101840005F6C6576656C5B305D5B305D0062656426
:101850005F6C6576656C203A0020440020490020CA
:1018600020204D333031205000504944207365749E
:1018700074696E67733A00205A0020590020204D89
:10188000363636205800456E6473746F702061647C
:101890006A757374656D656E7420286D6D293A00E4
:1018A000205A0020590020204D3230362058004860
:1018B0006F6D65206F666673657420286D6D293ABB
:1018C00000204500205A00205800204200205400EB
:1018D00020204D323035205300416476616E6365BF
:1018E00064207661726961626C65733A20533D4D84
:1018F000696E20666565647261746520286D6D2F60
:1019000073292C20543D4D696E2074726176656C8C
:1019100020666565647261746520286D6D2F73297A
:101920002C20423D6D696E696D756D207365676D24
:10193000656E742074696D6520286D73292C20589C
:101940003D6D6178696D756D205859206A65726BBF
:1019500020286D6D2F73292C20205A3D6D617869E8
:101960006D756D205A206A65726B20286D6D2F731E
:10197000292C2020453D6D6178696D756D204520CD
:101980006A65726B20286D6D2F732900205400202A
:10199000204D323034205300416363656C657261C1
:1019A00074696F6E3A20533D616363656C65726163
:1019B00074696F6E2C20543D72657472616374207B
:1019C000616363656C65726174696F6E00204500C8
:1019D000205A0020590020204D3230312058004D2F
:1019E0006178696D756D20416363656C65726174C2
:1019F000696F6E20286D6D2F7332293A00204500E3
:101A0000205A0020590020204D3230332058004DFC
:101A10006178696D756D2066656564726174657362
:101A200020286D6D2F73293A00204500205A002090
:101A3000590020204D3932205800537465707320AE
:101A400070657220756E69743A0053657474696EBE
:101A500067732053746F72656400022D2D3A2D2D2B
:101A6000002D2D2D00534420000120000120004EA8
:101A70006F2053442063617264005072696E742059
:101A800066726F6D2053440053746F7020707269DA
:101A90006E7400526573756D65207072696E7400A6
:101AA0005061757365207072696E7400436F6F6C5E
:101AB000646F776E004D61696E74656E616E63650B
:101AC0000046696C616D656E740054756E65004208
:101AD00041434B00052E2E004241434B004D323412
:101AE000004D323320257300473238004D38342002
:101AF000582059205A2045004D3130362053323578
:101B00003500526573657420746F20646566617575
:101B10006C74004C6F61642073657474696E670047
:101B200053746F72652073657474696E67005665CF
:101B30007273696F6E0052756E74696D652073748F
:101B40006174730054656D706572617475726500BF
:101B500053657474696E67205A2D6F666673657479
:101B6000004175746F206C6576656C696E6700481E
:101B70006F6D652068656164004241434B00436FAF
:101B80006F6C646F776E0042656400426564004E5E
:101B90006F7A7A6C65004E6F7A7A6C6500424143C9
:101BA0004B004D343030004730205A32302046311F
:101BB000303030004730205A343020463530303015
:101BC000004732380020004D6F7665205A004732BA
:101BD00038005A004241434B004F4B004732390016
:101BE000473238004732380053657474696E672095
:101BF0004142532074656D700053657474696E675B
:101C000020504C412074656D700045787472756485
:101C1000652066696C616D656E74004C6F6164204F
:101C200066696C616D656E7400556E6C6F616420E1
:101C300066696C616D656E740053656C65637420D4
:101C40004142530053656C65637420504C4100421F
:101C500041434B0053746F72652073657474696EF1
:101C6000670042656400426564004E6F7A7A6C6575
:101C7000004E6F7A7A6C65004241434B0053746F9B
:101C800072652073657474696E6700426564004212
:101C90006564004E6F7A7A6C65004E6F7A7A6C6577
:101CA000004241434B004732380001200043414E7F
:101CB00043454C004F4B0043414E43454C004F4B76
:101CC00000466C6F7700466C6F7700426564004297
:101CD0006564004E6F7A7A6C65004E6F7A7A6C6537
:101CE000004241434B00436172642072656D6F7620
:101CF0006564004361726420696E73657274656423
:101D0000002073656300206D696E0020686F757236
:101D10000020686F75727300494E46494E49545908
:101D20004E414ECDCCCC3D0AD7233C17B7D13877A6
:101D3000CC2B329595E6241FB14F0A0000204100BC
:101D400000C84200401C4620BCBE4CCA1B0E5AAE06
:101D5000C59D74007E1A2849EFC8771A11241FBE4A
:101D6000CFEFD1E2DEBFCDBF00E00CBF16E0A0E0B8
:101D7000B2E0EAECFBEA01E00BBF02C007900D9273
:101D8000AC3BB107D9F71BBE14E1ACEBB6E001C028
:101D90001D92A53AB107E1F71DE1CAE5DDE104C0F6
:101DA0002297FE010E948AD5C435D107C9F70E9447
:101DB00068D00C94D8D50C940000A0E0B0E0E3EE1D
:101DC000FEE00C94A7D5EC015B016115710519F0DB
:101DD000FB0191838083F9908F2D90E00E948ED536
:101DE000892BC9F7FDE2FF1621F4F990EE24E39464
:101DF00005C02BE2F21609F4F990EE248E01015091
:101E00001040C80168E17DE143E050E00E94731199
:101E1000892B01F58E010E5F1F4FC8016BE17DE13B
:101E200045E050E00E947311892B19F48E01095F7F
:101E30001F4FA114B10419F0F50111830083E0FCD8
:101E400004C070E090E080E814C070E090E080E8AA
:101E50006FEF08C1C80160E27DE143E050E00E94FD
:101E60007311892B69F4A114B10429F470E090E096
:101E700080EC6FE7F7C02296F501D183C083F6CFDF
:101E80008824992440E050E060E070E0EF2DE053BA
:101E9000EA30A0F5F2E0EF2A8E2D90E09C01287048
:101EA0003070E2FE06C0232B79F50894811C911C4A
:101EB0002BC0232B19F0089481089108DB01CA017B
:101EC00012E0880F991FAA1FBB1F1A95D1F7480F60
:101ED000591F6A1F7B1F440F551F661F771F4E0F28
:101EE000511D611D711D483929E9520729E9620711
:101EF00029E1720748F084E0E82A06C0EE3F31F499
:101F0000E3FC39C098E0E92AF990C0CFE53311F03D
:101F1000E53189F529912D3219F4E0E1EE2A05C069
:101F20002B3219F081E090E003C0299182E090E02B
:101F3000E22FE053EA3018F0C81BD90B1CC020E098
:101F400030E0FCE020383F075CF4C901880F991F9E
:101F5000880F991F280F391F220F331F2E0F311D95
:101F6000E991E053EA3068F3E4FE03C0309521952F
:101F70003F4F820E931ECE2CDD24E1FE07C0A1143C
:101F8000B10421F02197F501D183C083CB01BA01BF
:101F90000E94F3D17B018C01F3E0CF22DD2423E00A
:101FA000C216D10421F417FB109517F910955701AB
:101FB0006801C801B70120E030E040E050E00E9435
:101FC00053D1882309F44AC097FE0DC027E3E22EBF
:101FD0002DE1F22E9094819491089394C0E2D0E088
:101FE00000E010E012C09FE4E92E9DE1F92EF6CF4B
:101FF000F7012591359145915491C601B5010E9493
:1020000033D45B016C018C1A9D0A8C169D0684F7F3
:10201000D595C7950F5F1F4F0630110529F08CEF3E
:102020009FEFE80EF91EF1CFC501D6017C018D01AD
:102030008C2D880F8D2D881F8F3F51F0C601B50163
:1020400020E030E040E050E00E9453D1882331F49A
:1020500082E290E09093A4148093A3147E2D9F2D90
:10206000802F612F272F392F482F562FB901CA01F2
:10207000CDB7DEB7ECE00C94C3D52F923F925F92C0
:102080006F927F928F929F92AF92BF92CF92DF9288
:10209000EF92FF920F931F93CF93DF938C011B015D
:1020A000EA016115710519F0FB0191838083209786
:1020B00049F0CE010297839728F020E030E040E01D
:1020C00050E0F6C0F801A1908F018A2D90E00E94A7
:1020D0008ED5892BB9F7FDE2AF1631F4F801A19046
:1020E0008F015524539407C0FBE2AF1619F4F80191
:1020F000A1908F015524209719F0C031D105C1F46A
:10210000F0E3AF1679F4F8018081883711F0883553
:1021100049F4F801A1800E5F1F4FF2E05F2AC0E191
:10212000D0E006C0209721F480E3A816E9F427C088
:10213000C830D10531F1C930D10524F4C230D10500
:1021400031F50CC0CA30D10589F0C031D105F9F4A0
:10215000C12CD12CE12CB8E0FB2E28C0C12CD12CF5
:10216000E12CA0E4FA2E22C0CAE0D0E0FCECCF2E95
:10217000FCECDF2EFCECEF2EFCE0FF2E17C0C8E0DD
:10218000D0E0C12CD12CE12CE0E1FE2E0FC09E014D
:10219000442737FD4095542F60E070E080E090E8E0
:1021A0000E944BD5C901DA016C017D0120E030E0CD
:1021B00040E050E060E03E01882477FC8094982C59
:1021C00070EDB72EBA0CE9E0EB1570F48A2D81544E
:1021D0008A3118F499ECB92E06C08A2D81568A31BD
:1021E00050F589EAB82EBA0C8B2D90E08C179D071C
:1021F00014F56F3FE1F0C216D306E406F506B0F021
:10220000CA01B901A40193010E9405D59B01AC014B
:102210002B0D311D411D511D2130F0E03F07F0E035
:102220004F07F0E85F0710F461E001C06FEFF801BD
:10223000A1908F01C5CF2114310481F0662331F0C4
:1022400001501040F1011183008308C051FE1AC0F3
:1022500002501040F1011183008314C067FF12C0C7
:1022600050FC05C02FEF3FEF4FEF5FE704C020E0C9
:1022700030E040E050E882E290E09093A414809334
:10228000A31416C050FE08C0509540953095219576
:102290003F4F4F4F5F4F0CC057FF0AC082E290E0A4
:1022A0009093A4148093A3142FEF3FEF4FEF5FE7B9
:1022B000B901CA01DF91CF911F910F91FF90EF906B
:1022C000DF90CF90BF90AF909F908F907F906F9056
:1022D0005F903F902F900895FB01DC0105900D92D7
:1022E0000020E1F70895FB01DC014150504088F0E7
:1022F0008D9181341CF08B350CF4805E65916134D6
:102300001CF06B350CF4605E861B611171F3990B48
:102310000895881BFCCFFB01DC014150504048F080
:1023200005900D920020C9F701C01D924150504008
:10233000E0F70895FB0155915523A9F0BF01DC0199
:102340004D9145174111E1F759F4CD010590002059
:1023500049F04D9140154111C9F3FB014111EFCFF7
:1023600081E090E001970895FB01DC0104C08D91AC
:102370000190801921F441505040C8F7881B990BF7
:102380000895FB01DC0102C001900D9241505040C4
:10239000D8F70895FB01DC010D900020E9F71197B3
:1023A00001900D920020E1F70895FC0181918617BC
:1023B00021F08823D9F7992708953197CF010895FF
:1023C000FB01DC0101900D920020E1F70895FB0173
:1023D000DC014150504030F08D910190801919F48A
:1023E0000020B9F7881B990B0895FB01DC014150CF
:1023F000504048F001900D920020C9F701C01D9295
:1024000041505040E0F70895AEE0B0E0EAE0F2E17C
:102410000C94AFD50E891F8986E08C831A830983BB
:102420008FEF9FE79E838D839E01265E3F4FCE01F7
:102430000196688D798DA9010E944C122F813885F3
:10244000020F131FF80110822E96E4E00C94CBD5F6
:10245000AEE0B0E0EEE2F2E10C94AFD50E891F8958
:102460008EE08C831A8309838FEF9FE79E838D8391
:102470009E01265E3F4FCE010196688D798DA901A0
:102480000E944C122F813885020F131FF801108211
:102490002E96E4E00C94CBD5ABE0B0E0E2E5F2E1BF
:1024A0000C94A1D53C012B015A01FC011782168224
:1024B000838181FD03C06FEF7FEFC6C19AE0892E53
:1024C0001E010894211C311CF3012381F20123FD1C
:1024D000859123FF81912F01882309F4B2C18532B0
:1024E00039F423FD859123FF81912F01853229F451
:1024F00090E0B3010E943F14E7CF982FFF24EE2411
:102500009924FFE1FF15D0F09B3269F09C3228F44A
:10251000903259F0933291F40EC09D3249F09033CD
:1025200069F441E024C052E0F52A84E0F82A28C08A
:1025300098E0F92A25C0E0E1FE2A22C0F7FC29C074
:10254000892F80538A3070F4F6FE05C0989C902C39
:102550001124980E15C0E89CE02C1124E80EF0E23E
:10256000FF2A0EC09E3229F4F6FC6BC140E4F42A27
:1025700007C09C3619F450E8F52A02C0983649F491
:10258000F20123FD959123FF91912F01992309F0E9
:10259000B8CF892F8554833018F08052833038F4B7
:1025A00044E050E0A40EB51E5FE359830FC093369C
:1025B00031F0933779F0933509F056C020C0F5011A
:1025C0008081898342E050E0A40EB51E610101E0E4
:1025D00010E012C0F501C080D180F6FC03C06FEF9F
:1025E0007FEF02C0692D70E042E050E0A40EB51EFE
:1025F000C6010E9434148C015FE7F52214C0F50176
:10260000C080D180F6FC03C06FEF7FEF02C0692D60
:1026100070E042E050E0A40EB51EC6010E942914ED
:102620008C0150E8F52AF3FE07C01AC080E290E062
:10263000B3010E943F14EA948E2D90E00817190709
:10264000A8F30EC0F601F7FC8591F7FE81916F01AA
:1026500090E0B3010E943F14E110EA940150104051
:102660000115110579F7EAC0943611F0993669F52C
:10267000F7FE08C0F501208131814281538184E059
:1026800090E00AC0F501808191819C01442737FDCB
:102690004095542F82E090E0A80EB91E9FE6F922E3
:1026A00057FF09C050954095309521953F4F4F4FAA
:1026B0005F4FE0E8FE2ACA01B901A1012AE030E03B
:1026C0000E946B14D82ED21840C0953729F41F2DC4
:1026D0001F7E2AE030E01DC01F2D197F9F3661F05C
:1026E000903720F4983509F0ACC00FC0903739F01E
:1026F000983709F0A6C004C028E030E00AC0106195
:1027000014FD146020E130E004C014FD166020E1E7
:1027100032E017FF08C0F5016081718182819381E9
:1027200044E050E008C0F50180819181BC0180E067
:1027300090E042E050E0A40EB51EA1010E946B148F
:10274000D82ED2188FE7F82EF122F6FE0BC05EEFDE
:10275000F522D91438F4F4FE07C0F2FC05C08FEE60
:10276000F82202C01D2D01C0192DF4FE0DC0FE017E
:10277000ED0DF11D8081803319F499EEF92208C026
:102780001F5FF2FE05C003C08F2D867809F01F5F22
:102790000F2DF3FC14C0F0FE0FC01E1510F09D2C81
:1027A0000BC09D2C9E0C911A1E2D06C080E290E05D
:1027B000B3010E943F141F5F1E15C0F304C01E1515
:1027C00010F4E11A01C0EE2404FF0FC080E390E092
:1027D000B3010E943F1402FF1DC001FD03C088E742
:1027E00090E00EC088E590E00BC0802F867891F0D5
:1027F00001FF02C08BE201C080E2F7FC8DE290E0B5
:10280000B3010E943F1406C080E390E0B3010E9430
:102810003F149A94D914C0F3DA94F101ED0DF11D2F
:10282000808190E0B3010E943F14DD20A9F706C02B
:1028300080E290E0B3010E943F14EA94EE20C1F7D9
:1028400043CEF30166817781CB012B96E2E10C94B4
:10285000BDD5FC010590615070400110D8F78095FE
:1028600090958E0F9F1F0895FC016150704001905C
:102870000110D8F7809590958E0F9F1F08950F93A4
:102880001F93CF93DF938C01EB018B8181FF1BC0E2
:1028900082FF0DC02E813F818C819D8128173907D1
:1028A00064F4E881F9810193F983E88306C0E8853F
:1028B000F985802F1995892B31F48E819F8101969E
:1028C0009F838E8302C00FEF1FEFC801DF91CF916E
:1028D0001F910F910895FA01AA27283051F1203154
:1028E00081F1E8946F936E7F6E5F7F4F8F4F9F4FA4
:1028F000AF4FB1E03ED0B4E03CD0670F781F891FE6
:102900009A1FA11D680F791F8A1F911DA11D6A0FB3
:10291000711D811D911DA11D20D009F468943F9166
:102920002AE0269F11243019305D3193DEF6CF0165
:102930000895462F4770405D4193B3E00FD0C9F72B
:10294000F6CF462F4F70405D4A3318F0495D31FD98
:102950004052419302D0A9F7EACFB4E0A6959795EB
:10296000879577956795BA95C9F7009761057105C1
:1029700008959B01AC010A2E06945795479537950B
:102980002795BA95C9F7620F731F841F951FA01D65
:1029900008951F920F920FB60F9211242F933F9319
:1029A0008F939F93AF93BF938091C0069091C10680
:1029B000A091C206B091C3063091C4060196A11D34
:1029C000B11D232F2D5F2D3720F02D570196A11D0E
:1029D000B11D2093C4068093C0069093C106A093B6
:1029E000C206B093C3068091BC069091BD06A0912B
:1029F000BE06B091BF060196A11DB11D8093BC0615
:102A00009093BD06A093BE06B093BF06BF91AF9151
:102A10009F918F913F912F910F900FBE0F901F901C
:102A200018958FB7F8942091C0063091C106409157
:102A3000C2065091C3068FBFB901CA0108959B0118
:102A4000AC017FB7F8948091BC069091BD06A0912F
:102A5000BE06B091BF0666B5A89B05C06F3F19F0D2
:102A60000196A11DB11D7FBFBA2FA92F982F8827CE
:102A7000860F911DA11DB11D62E0880F991FAA1F2D
:102A8000BB1F6A95D1F7BC012DC0FFB7F8948091A8
:102A9000BC069091BD06A091BE06B091BF06E6B5FA
:102AA000A89B05C0EF3F19F00196A11DB11DFFBF06
:102AB000BA2FA92F982F88278E0F911DA11DB11D08
:102AC000E2E0880F991FAA1FBB1FEA95D1F7861B6A
:102AD000970B885E9340C8F22150304040405040F0
:102AE00068517C4F211531054105510571F6089556
:102AF000019739F0880F991F880F991F0297019746
:102B0000F1F70895789484B5826084BD84B58160BE
:102B100084BD85B5826085BD85B5816085BDEEE6E5
:102B2000F0E0808181608083E1E8F0E010828081C4
:102B300082608083808181608083E0E8F0E0808132
:102B400081608083E1EBF0E0808184608083E0EB52
:102B5000F0E0808181608083E1E9F0E08081826043
:102B60008083808181608083E0E9F0E08081816002
:102B70008083E1EAF0E080818260808380818160EF
:102B80008083E0EAF0E0808181608083E1E2F1E02F
:102B9000808182608083808181608083E0E2F1E0D7
:102BA000808181608083EAE7F0E0808184608083B7
:102BB0008081826080838081816080838081806861
:102BC00080831092C10008951F93CF93DF93182F35
:102BD000EB0161E00E94C416209709F4CAC0CF3F00
:102BE000D10509F4C9C0E12FF0E0E75FFD4F849102
:102BF000893009F466C08A30B0F48430F1F1853050
:102C000040F4823059F1833070F5813009F0AEC064
:102C100020C0873009F443C0883008F048C08630AF
:102C200009F0A4C034C08D3009F478C08E3038F477
:102C30008B3009F45AC08C3008F066C04CC080312B
:102C400009F480C0813109F487C08F3009F08EC04B
:102C50006FC084B5806884BDC7BD92C084B58062F2
:102C600084BDC8BD8DC08091800080688093800045
:102C7000D0938900C093880083C0809180008062D7
:102C800080938000D0938B00C0938A0079C080919C
:102C9000B00080688093B000C093B30071C0809191
:102CA000B00080628093B000C093B40069C080918E
:102CB0009000806880939000D0939900C093980012
:102CC0005FC080919000806280939000D0939B00C1
:102CD000C0939A0055C080919000886080939000C6
:102CE000D0939D00C0939C004BC08091A000806851
:102CF0008093A0008091A0008F7B8093A000D09350
:102D0000A900C093A8003CC08091A000806280937D
:102D1000A000D093AB00C093AA0032C08091A00065
:102D200088608093A000D093AD00C093AC0028C011
:102D300080912001806880932001D0932901C09365
:102D400028011EC080912001806280932001D093D1
:102D50002B01C0932A0114C08091200188608093C8
:102D60002001D0932D01C0932C010AC0C038D10599
:102D70001CF4812F60E002C0812F61E00E94771770
:102D8000DF91CF911F910895CF93DF93482F50E0AB
:102D9000CA018D539E4FFC01349143585E4FFA0196
:102DA0008491882369F190E0880F991FFC01E15D0F
:102DB000FE4FA591B491FC01E75BFE4FC591D49104
:102DC000662351F42FB7F8948C91932F9095892313
:102DD0008C93888189230BC0623061F42FB7F894FB
:102DE0008C91932F909589238C938881832B888352
:102DF0002FBF06C09FB7F8948C91832B8C939FBFF5
:102E0000DF91CF910895893009F449C08A30A0F448
:102E1000843051F1853040F4823079F1833000F50F
:102E2000813009F063C026C0873079F1883098F589
:102E3000863009F05BC025C08D3009F442C08E3069
:102E400028F48B30B1F18C30C0F52DC0803109F4FD
:102E500042C0813109F445C08F3009F047C037C006
:102E6000809180008F7703C0809180008F7D809358
:102E70008000089584B58F7702C084B58F7D84BDAE
:102E800008958091B0008F7703C08091B0008F7D4E
:102E90008093B0000895809190008F7707C0809153
:102EA00090008F7D03C080919000877F8093900079
:102EB00008958091A0008F7707C08091A0008F7D3A
:102EC00003C08091A000877F8093A0000895809127
:102ED00020018F7703C0809120018F7D8093200196
:102EE000089580912001877F809320010895FF92AB
:102EF0000F931F93F62E482F50E0CA01875F9D4F16
:102F0000FC012491CA018D539E4FFC01149143583A
:102F10005E4FFA0104910023C9F0222319F0822F99
:102F20000E940317E02FF0E0EE0FFF1FE75BFE4F5C
:102F3000A591B4919FB7F894FF2021F48C9110953E
:102F4000812302C08C91812B8C939FBF1F910F9185
:102F5000FF9008950F931F93482F50E0CA01875F99
:102F60009D4FFC012491CA018D539E4FFC01049199
:102F700043585E4FFA011491112319F420E030E018
:102F800015C0222319F0822F0E940317812F90E091
:102F9000880F991F8D599E4FFC01A591B4918C917A
:102FA00020E030E0802311F021E030E0C9011F91E2
:102FB0000F9108951F920F920FB60F920BB60F92BA
:102FC00011242F933F934F935F936F937F938F932E
:102FD0009F93AF93BF93EF93FF938091C906909116
:102FE000CA06892B29F0E091C906F091CA06199505
:102FF000FF91EF91BF91AF919F918F917F916F91D1
:103000005F914F913F912F910F900BBE0F900FBE8C
:103010000F901F9018951F920F920FB60F920BB63C
:103020000F9211242F933F934F935F936F937F934E
:103030008F939F93AF93BF93EF93FF938091CB06B2
:103040009091CC06892B29F0E091CB06F091CC062B
:103050001995FF91EF91BF91AF919F918F917F91C2
:103060006F915F914F913F912F910F900BBE0F90F9
:103070000FBE0F901F9018951F920F920FB60F92D0
:103080000BB60F9211242F933F934F935F936F933F
:103090007F938F939F93AF93BF93EF93FF93809111
:1030A000CD069091CE06892B29F0E091CD06F091C6
:1030B000CE061995FF91EF91BF91AF919F918F919E
:1030C0007F916F915F914F913F912F910F900BBE28
:1030D0000F900FBE0F901F9018951F920F920FB672
:1030E0000F920BB60F9211242F933F934F935F9340
:1030F0006F937F938F939F93AF93BF93EF93FF93C0
:103100008091CF069091D006892B29F0E091CF06CF
:10311000F091D0061995FF91EF91BF91AF919F91DA
:103120008F917F916F915F914F913F912F910F9070
:103130000BBE0F900FBE0F901F9018951F920F920D
:103140000FB60F920BB60F9211242F933F934F930C
:103150005F936F937F938F939F93AF93BF93EF93FF
:10316000FF938091C5069091C606892B29F0E091C6
:10317000C506F091C6061995FF91EF91BF91AF91E9
:103180009F918F917F916F915F914F913F912F917F
:103190000F900BBE0F900FBE0F901F9018951F92AF
:1031A0000F920FB60F920BB60F9211242F933F93ED
:1031B0004F935F936F937F938F939F93AF93BF933F
:1031C000EF93FF938091C7069091C806892B29F051
:1031D000E091C706F091C8061995FF91EF91BF9154
:1031E000AF919F918F917F916F915F914F913F919F
:1031F0002F910F900BBE0F900FBE0F901F90189540
:103200001F920F920FB60F920BB60F9211242F93AD
:103210003F934F935F936F937F938F939F93AF935E
:10322000BF93EF93FF938091D1069091D206892BA3
:1032300029F0E091D106F091D2061995FF91EF9116
:10324000BF91AF919F918F917F916F915F914F91BE
:103250003F912F910F900BBE0F900FBE0F901F90BC
:1032600018951F920F920FB60F920BB60F92112462
:103270002F933F934F935F936F937F938F939F937E
:10328000AF93BF93EF93FF938091D3069091D406B1
:10329000892B29F0E091D306F091D4061995FF917E
:1032A000EF91BF91AF919F918F917F916F915F91BE
:1032B0004F913F912F910F900BBE0F900FBE0F902B
:1032C0001F901895CF92DF92EF92FF920F931F936A
:1032D000CF93DF937C016B018A01C0E0D0E00FC087
:1032E000D6016D916D01D701ED91FC910190F081B6
:1032F000E02DC7011995C80FD91F015010400115C5
:10330000110571F7CE01DF91CF911F910F91FF90C1
:10331000EF90DF90CF900895DC01ED91FC9101904A
:10332000F081E02D19950895CF93DF93EC0161159D
:10333000710519F420E030E00FC0DB010D90002092
:10334000E9F71197A61BB70BE881F9810280F38199
:10335000E02DAD0119959C01C901DF91CF91089530
:103360000E949419089580919D0B90919E0B1816C0
:1033700019069CF48091070A9091080A019664E06E
:1033800070E00E9438D59093980B8093970B81E062
:1033900090E090939E0B80939D0B0895EF92FF9287
:1033A0000F931F93CF93DF93EC01E0908205F09091
:1033B00083050091840510918505688179818A8152
:1033C0009B81A80197010E9461D3181624F4E8821A
:1033D000F9820A831B83E0908605F09087050091AF
:1033E0008805109189056C817D818E819F81A8015E
:1033F00097010E9461D3181624F4EC82FD820E839B
:103400001F83E0908A05F0908B0500918C05109148
:103410008D05688579858A859B85A80197010E941D
:1034200061D3181624F4E886F9860A871B87DF9192
:10343000CF911F910F91FF90EF9008958091D20945
:1034400008950F931F93CF93DF938130910549F433
:103450006F5F7F4F09F046C085ED96E00E941F9395
:1034600041C0892B09F03EC06F5F7F4FD9F58CE3D7
:1034700096E09093A00880939F088091A6088823E7
:1034800021F083EA98E00E940D4FCBE5D8E00CE3F1
:1034900016E005C06F9787E0C532D80751F0198351
:1034A00008838F818823B1F3CE0104960E940D4FCB
:1034B000F1CF8CE396E0998388838F81882321F074
:1034C000CE0104960E940D4F8CE396E09093050781
:1034D0008093040780910B07882321F088E097E010
:1034E0000E940D4FDF91CF911F910F91089580E0C1
:1034F00090E06FEF7FEF0E94211A089581E090E045
:103500006FEF7FEF0E94211A08950E94857B8091C2
:10351000D209882309F03AC081E08093D2098091D2
:10352000D6099091D709A091D809B091D909809373
:10353000DA099093DB09A093DC09B093DD09E5E596
:10354000F2E0949108C08091C00085FFFCCF909379
:10355000C600319694919923B1F7E6E6F2E0949192
:1035600008C08091C00085FFFCCF9093C6003196C3
:1035700094919923B1F78091C00085FFFCCF8AE038
:103580008093C6008CE592E00E9422C90895F894C9
:103590000E94857B9FB7F894809108018160809399
:1035A00008019FBF109290099FB7F89480910B017A
:1035B000826080930B019FBF10929109899A1092AB
:1035C0009209129A8DE260E00E94C416E5E5F2E0ED
:1035D000949108C08091C00085FFFCCF9093C600F5
:1035E000319694919923B1F7E5EEF2E0949108C0F9
:1035F0008091C00085FFFCCF9093C60031969491D6
:103600009923B1F78091C00085FFFCCF8AE08093B9
:10361000C6008CED92E00E9431C9FFCF0E941115C7
:103620006093DE097093DF098093E0099093E109CC
:10363000E091070AF091080AE75FF54F808188233F
:10364000A9F4E4E0F3E0949108C08091C00085FF04
:10365000FCCF9093C600319694919923B1F7809155
:10366000C00085FFFCCF8AE08093C60008950E94C9
:1036700011156093DE097093DF098093E009909340
:10368000E1090895EF92FF920F931F930E94111585
:10369000E090E209F090E3090091E4091091E50956
:1036A0002091DE093091DF094091E0095091E10954
:1036B000621B730B840B950BE616F70608071907B8
:1036C00038F4E114F1040105110511F00E94C71A44
:1036D0008091900590919105A0919205B0919305EC
:1036E0000097A105B105C9F10E9411152091DE09CD
:1036F0003091DF094091E0095091E109621B730BA1
:10370000840B950B20919005309191054091920585
:10371000509193052617370748075907F0F4909101
:103720007713809178139817C1F49FB7F89480911C
:1037300008018160809308019FBF109290099FB794
:10374000F89480910B01826080930B019FBF1092CF
:103750009109899A10929209129A0E9478631F9196
:103760000F91FF90EF9008956F927F928F929F92AA
:10377000AF92BF92CF92DF92EF92FF920F931F937F
:10378000F82E6091E6097091E7098091E80990911F
:10379000E9092091EA093091EB094091EC09509137
:1037A000ED090E946ED33B014C0100D000D00DB753
:1037B0001EB70F5F1F4F60916E0570916F058827D0
:1037C00077FD8095982F0E94F5D120919405309136
:1037D000950540919605509197050E9433D420E0BD
:1037E00030E040E752E40E945AD120E030E048EC5B
:1037F00052E40E945AD15B016C01F801608271822F
:1038000082829382F48280919709858388E699E089
:1038100062EF79E046EE59E020E001E0E2E0EE2ED2
:103820000E94EE5B8091F2099091F309A091F40956
:10383000B091F5098093680990936909A0936A098A
:10384000B0936B098091F6099091F709A091F8095E
:10385000B091F90980936C0990936D09A0936E095A
:10386000B0936F098091FA099091FB09A091FC092E
:10387000B091FD098093700990937109A09372092A
:10388000B09373098091FE099091FF09A091000AFD
:10389000B091010A8093740990937509A0937609F9
:1038A000B09377098DB79EB706960FB6F8949EBF72
:1038B0000FBE8DBF0E9411156093DE097093DF0962
:1038C0008093E0099093E1091F910F91FF90EF9091
:1038D000DF90CF90BF90AF909F908F907F906F9030
:1038E00008958F929F92AF92BF92CF92DF92EF9204
:1038F000FF920F931F934C016EE37BE487ED92ECF4
:10390000F40120813181428153810E9479D07B0171
:103910008C016AE979E988E792ECF4012481358128
:10392000468157810E9479D05B016C01C801B701C3
:10393000A80197010E9433D49B01AC0160E079E7B4
:103940008AE697E40E9479D07B018C01C601B5011B
:10395000A60195010E9433D49B01AC01C801B701B7
:103960000E9479D00E94A0D4F4012085318542853F
:1039700053850E947AD060939A0970939B09809333
:103980009C0990939D096EE37BE487ED92E4F4013A
:1039900020813181428153810E9479D07B018C0149
:1039A0006AE979E988E792ECF4012481358146815E
:1039B00057810E9479D05B016C01C801B701A80151
:1039C00097010E9433D49B01AC0160E079E78AE65D
:1039D00097E40E9479D07B018C01C601B501A60154
:1039E00095010E9433D49B01AC01C801B7010E942C
:1039F00079D00E94A0D4F401208531854285538579
:103A00000E947AD060939E0970939F098093A009C9
:103A10009093A10960E070E080E090E0F4012081E3
:103A20003181428153810E9479D07B018C016AE906
:103A300079E988EF92E4F401248135814681578148
:103A40000E9479D05B016C01C801B701A801970100
:103A50000E9433D49B01AC0160E079E78AE697E4E9
:103A60000E9479D07B018C01C601B501A6019501A8
:103A70000E9433D49B01AC01C801B7010E9479D0E8
:103A80000E94A0D4F40120853185428553850E948F
:103A90007AD06093A2097093A3098093A4099093AC
:103AA000A5091F910F91FF90EF90DF90CF90BF90ED
:103AB000AF909F908F9008952F923F924F925F9278
:103AC0006F927F928F929F92AF92BF92CF92DF922E
:103AD000EF92FF920F931F93DF93CF9300D00F923B
:103AE000CDB7DEB70E9411156093DE097093DF0930
:103AF0008093E0099093E109F2EFCF2EF9E0DF2EF9
:103B0000C6010E94711C0F920F922DB63EB608940A
:103B1000211C311C40909A0950909B0960909C098F
:103B200070909D0980919E0990919F09A091A00994
:103B3000B091A10989839A83AB83BC83E090A209E9
:103B4000F090A3090091A4091091A509ACE0B0E0A0
:103B5000CA0EDB1E60916E0570916F05882777FD98
:103B60008095982F0E94F5D120919405309195056C
:103B700040919605509197050E9433D420E030E0A3
:103B800040E752E40E945AD120E030E048EC52E491
:103B90000E945AD14B015C0187E999E0F1019183C0
:103BA0008083C301B20129813A814B815C810E94EB
:103BB00061668091F2099091F309A091F409B091A6
:103BC000F5098093680990936909A0936A09B093F5
:103BD0006B098091F6099091F709A091F809B091CD
:103BE000F90980936C0990936D09A0936E09B093C5
:103BF0006F098091FA099091FB09A091FC09B0919D
:103C0000FD098093700990937109A0937209B09394
:103C100073098091FE099091FF09A091000AB0916B
:103C2000010A8093740990937509A0937609B09363
:103C300077090F900F900F900F900F900F90CF91EA
:103C4000DF911F910F91FF90EF90DF90CF90BF9089
:103C5000AF909F908F907F906F905F904F903F902C
:103C60002F9008952F923F924F925F926F927F9282
:103C70008F929F92AF92BF92CF92DF92EF92FF927C
:103C80000F931F93DF93CF93CDB7DEB762970FB635
:103C9000F894DEBF0FBECDBF3C01DC016D917D917C
:103CA0008D919C9120E030E044E952E40E945AD189
:103CB00069837A838B839C8327E73EEB4FE75FE33F
:103CC0000E9461D318168CF069817A818B819C8166
:103CD00027E73EEB4FE75FEB0E9453D188236CF45C
:103CE00087E79EEBAFE7BFEB04C087E79EEBAFE74C
:103CF000BFE389839A83AB83BC83D30114966D9110
:103D00007D918D919C91179720E030E044E952E439
:103D10000E945AD12B013C0127E73EEB4FE75FE3BE
:103D20000E9461D31816ACF0C301B20127E73EEB45
:103D30004FE75FEB0E9453D18823ACF40F2EF7E7D7
:103D40004F2EFEEB5F2EFFE76F2EFFEB7F2EF02D49
:103D50000AC00F2EF7E74F2EFEEB5F2EFFE76F2E08
:103D6000FFE37F2EF02D69817A818B819C810E94F7
:103D700030D20E94C2D14B015C01C301B2010E944A
:103D800030D20E94C2D16B017C01B401882777FD3B
:103D90008095982F0E94F5D19B01AC0169817A81B1
:103DA0008B819C810E9479D06D837E838F839887DD
:103DB000B601882777FD8095982F0E94F5D19B0149
:103DC000AC01C301B2010E9479D02B013C010894DF
:103DD000811C911C0894C11CD11CF6013196FA8BF0
:103DE000E98B14010894211C311C60E070E080E82C
:103DF0009FE3A30192010E9479D069877A878B871C
:103E00009C8760E070E080E89FE32D813E814F81D8
:103E100058850E9479D06D877E878F87988B840123
:103E2000000F111F080D191DF801EC0DFD1DEE0FFF
:103E3000FF1FEE0FFF1FEA55F64F69857A858B85C8
:103E40009C8520813181428153810E9433D44B0172
:103E50005C0189899A89080F191F000F111F000F33
:103E6000111F0A55164FC301B201D8012D913D9182
:103E70004D915C910E9433D49B01AC01C501B4010A
:103E80000E947AD09B01AC016D857E858F859889D3
:103E90000E9433D44B015C018101000F111F020D00
:103EA000131DC00ED11ECC0CDD1CCC0CDD1CE6EAB3
:103EB000F9E0CE0EDF1E69857A858B859C85D6015B
:103EC0002D913D914D915C910E9433D46B017C0109
:103ED000E989FA890E0F1F1F000F111F000F111F14
:103EE0000A55164FC301B201D8012D913D914D9154
:103EF0005C910E9433D49B01AC01C701B6010E94C2
:103F00007AD09B01AC016D817E818F8198850E9462
:103F100033D49B01AC01C501B4010E947AD07B016E
:103F20008C0160919A0970919B0980919C099091F4
:103F30009D09A80197010E947AD060939A09709315
:103F40009B0980939C0990939D0960919E097091B3
:103F50009F098091A0099091A109A80197010E9451
:103F60007AD060939E0970939F098093A0099093E3
:103F7000A1096091A2097091A3098091A40990916F
:103F8000A509A80197010E947AD06093A2097093B5
:103F9000A3098093A4099093A50962960FB6F8949B
:103FA000DEBF0FBECDBFCF91DF911F910F91FF906C
:103FB000EF90DF90CF90BF90AF909F908F907F90C9
:103FC0006F905F904F903F902F9008952F923F9267
:103FD0004F925F926F927F928F929F92AF92BF9219
:103FE000CF92DF92EF92FF920F931F93DF93CF93C5
:103FF000CDB7DEB7A6970FB6F894DEBF0FBECDBF24
:10400000E0908205F090830500918405109185056C
:104010006091F2097091F3098091F4099091F5098A
:10402000A80197010E9461D3181644F4E092F209A6
:10403000F092F3090093F4091093F509E0908605D6
:10404000F090870500918805109189056091F60927
:104050007091F7098091F8099091F909A8019701E9
:104060000E9461D3181644F4E092F609F092F70921
:104070000093F8091093F909E0908A05F0908B05F8
:1040800000918C0510918D056091FA097091FB09E2
:104090008091FC099091FD09A80197010E9461D3CC
:1040A000181644F4E092FA09F092FB090093FC0917
:1040B0001093FD090E9411156093DE097093DF09CA
:1040C0008093E0099093E109EE24FF246E010894A7
:1040D000C11CD11C86010E0D1F1DF701EE50F64FBD
:1040E000D701A859B64F60817181828193812D914A
:1040F0003D914D915C910E9479D0D8016D937D9353
:104100008D939C931397E4E0F0E0EE0EFF1EF0E138
:10411000EF16F104F9F689819A81AB81BC818B8F0E
:104120009C8FAD8FBE8F8D819E81AF81B8858F8B27
:10413000988FA98FBA8F89859A85AB85BC858B8B23
:104140009C8BAD8BBE8B6B8D7C8D8D8D9E8D9B01E5
:10415000AC010E9433D47B018C016F89788D898DED
:104160009A8D9B01AC010E9433D49B01AC01C80124
:10417000B7010E947AD07B018C016B897C898D8983
:104180009E899B01AC010E9433D49B01AC01C80104
:10419000B7010E947AD00E94A0D47B018C012DEB44
:1041A00037E346E855E30E9453D1882394F4ED8425
:1041B000FE840F851889C801B70120E030E040E097
:1041C00050E00E9461D3181624F017FB109517F9E0
:1041D0001095C801B7012DEB37E346E855E30E947F
:1041E00053D187FD73C1C801B70120E030E84BEB24
:1041F00055E40E9433D42091940530919505409167
:104200009605509197050E945AD17B018C016091CF
:104210006E0570916F05882777FD8095982F0E9415
:10422000F5D19B01AC01C801B7010E945AD120E031
:1042300030E048E453E40E9433D40E94C2D17A8B28
:10424000698B1616170624F0A1E0B0E0BA8BA98B93
:10425000F1E02F2E312C89899A89AA2797FDA09504
:10426000BA2F8BA39CA3ADA3BEA3EAC0B10188273C
:1042700077FD8095982F0E94F5D17B018C016BA171
:104280007CA18DA19EA10E94F5D19B01AC01C8012A
:10429000B7010E945AD17B018C016B8D7C8D8D8D75
:1042A0009E8DA80197010E9433D49B01AC016091BF
:1042B00068097091690980916A0990916B090E945F
:1042C0007AD06093F2097093F3098093F409909384
:1042D000F5096F89788D898D9A8DA80197010E94C3
:1042E00033D49B01AC0160916C0970916D09809190
:1042F0006E0990916F090E947AD06093F6097093CD
:10430000F7098093F8099093F9096B897C898D8965
:104310009E89A80197010E9433D49B01AC01609152
:1043200070097091710980917209909173090E94CE
:104330007AD06093FA097093FB098093FC099093FB
:10434000FD09C801B7012D853E854F8558890E941A
:1043500033D49B01AC01609174097091750980910F
:104360007609909177090E947AD06093FE09709344
:10437000FF098093000A9093010A82EF99E00E945E
:10438000711C82EF99E00E94321E0F920F92CDB6FF
:10439000DEB60894C11CD11C40909A0950909B092C
:1043A00060909C0970909D0980919E0990919F0951
:1043B000A091A009B091A1098F8F98A3A9A3BAA336
:1043C000E090A209F090A3090091A4091091A50919
:1043D00060916E0570916F05882777FD8095982F05
:1043E0000E94F5D120919405309195054091960554
:1043F000509197050E9433D420E030E040E752E42A
:104400000E945AD120E030E048EC52E40E945AD198
:104410004B015C01E7E9F9E0D601ED93FC93C301A0
:10442000B2012F8D38A149A15AA1EEEFCE2EE9E0BD
:10443000DE2E0E9461660894211C311C0F900F90A3
:1044400089899A89821593050CF010CF8091F20921
:104450009091F309A091F409B091F509809368094E
:1044600090936909A0936A09B0936B098091F6094A
:104470009091F709A091F809B091F90980936C091E
:1044800090936D09A0936E09B0936F098091FA091A
:104490009091FB09A091FC09B091FD0980937009EE
:1044A00090937109A0937209B09373098091FE09EA
:1044B0009091FF09A091000AB091010A80937409BC
:1044C00090937509A0937609B0937709A6960FB6D5
:1044D000F894DEBF0FBECDBFCF91DF911F910F913A
:1044E000FF90EF90DF90CF90BF90AF909F908F9014
:1044F0007F906F905F904F903F902F90089584E24F
:104500009CE00E941F49E7E0F3E0949108C080918D
:10451000C00085FFFCCF9093C600319694919923FB
:10452000B1F74091D6095091D7096091D80970919F
:10453000D9094F5F5F4F6F4F7F4F84E29CE02AE0C5
:1045400030E00E94E0498091C00085FFFCCF8AE006
:104550008093C6000E940E1B08956F927F928F92E7
:104560009F92AF92BF92CF92DF92EF92FF920F9302
:104570001F9360909405709095058090960590909B
:1045800097050F2EF0E0AF2EF0E0BF2EFAE7CF2E0A
:10459000F5E4DF2EF02DA0929405B0929505C0921F
:1045A0009605D09297056093F2097093F309809372
:1045B000F4099093F5092093F6093093F709409395
:1045C000F8095093F909E092FA09F092FB09009377
:1045D000FC091093FD090E945C1D0E943E736092CD
:1045E00094057092950580929605909297051F917B
:1045F0000F91FF90EF90DF90CF90BF90AF909F9082
:104600008F907F906F900895EF92FF920F931F937A
:1046100080915E0590915F05A0916005B091610564
:104620008093940590939505A0939605B093970574
:104630000F2EF0E0EF2EF0E0FF2EF0E00F2FF0E075
:104640001F2FF02DE092F209F092F3090093F40984
:104650001093F509E092F609F092F7090093F80932
:104660001093F90980E090E0A8ECB2E48093FA0995
:104670009093FB09A093FC09B093FD090E945C1D77
:1046800060915E0570915F05809160059091610574
:1046900020E030E040E251E40E945AD1609394055A
:1046A000709395058093960590939705E092F20993
:1046B000F092F3090093F4091093F5090E945C1D30
:1046C0000E943E731F910F91FF90EF90089580E03C
:1046D0000E94207280910D0A90910E0AA0910F0AFB
:1046E000B091100A8093940590939505A093960538
:1046F000B0939705809166099091670990936F0533
:1047000080936E050E9411156093DE097093DF0996
:104710008093E0099093E10908952F923F924F9280
:104720005F926F927F928F929F92AF92BF92CF9241
:10473000DF92EF92FF920F931F93DF93CF93CDB74A
:10474000DEB7A0970FB6F894DEBF0FBECDBF9E8335
:104750008D838330910508F0D4C2FC01EE58FA4FE6
:10476000B490880F991F880F991F98A38F8FB8E670
:104770002B2EB9E03B2E280E391E20E030E040E021
:1047800050E0D1012D933D934D935C93139760912D
:1047900068097091690980916A0990916B0920916B
:1047A0006C0930916D0940916E0950916F09E0904C
:1047B0007009F09071090091720910917309A4E7D2
:1047C000CA2EA9E0DA2E0E94096120E030E040E024
:1047D00050E0D1012D933D934D935C9313976091DD
:1047E00068097091690980916A0990916B0920911B
:1047F0006C0930916D0940916E0950916F09E090FC
:104800007009F090710900917209109173090E946A
:104810000961EF8DF8A1EB58FA4FE590F5900591FD
:1048200014916B2D772767FD7095882777FD80950C
:10483000982F0E94F5D169837A838B839C83EF8DB7
:10484000F8A1EE50F64FF887EF83C801B70120E0DA
:1048500030E040EC5FE30E9433D429813A814B8100
:104860005C810E9433D4AF81B8856D937D938D9325
:104870009C931397EF8DF8A1E25AFA4FFA87E987D4
:104880006081718182819381609394057093950515
:1048900080939605909397050F920F92CDB6DEB652
:1048A0000894C11CD11C4090F2095090F30960900B
:1048B000F4097090F5092091F6093091F7094091BB
:1048C000F8095091F9092B873C874D875E87E09066
:1048D000FA09F090FB090091FC091091FD0920E014
:1048E00030E040E752E40E945AD14B015C01E7E915
:1048F000F9E0D601ED93FC93C301B2012B853C8511
:104900004D855E85FEEFCF2EF9E0DF2E0E946166B9
:104910000F900F900E943E7380E00E94207220E072
:1049200030E040E050E0D1012D933D934D935C93F6
:104930001397609168097091690980916A09909153
:104940006B0920916C0930916D0940916E0950916D
:104950006F09E0907009F09071090091720910914F
:104960007309E4E7CE2EE9E0DE2E0E940961EF8DA7
:10497000F8A1EF57FA4F4590559065907490C30198
:10498000B201905829813A814B815C810E9433D4D5
:10499000EF81F88560837183828393830F920F92F6
:1049A000CDB6DEB60894C11CD11C2091F20930911D
:1049B000F3094091F4095091F5092F87388B498B01
:1049C0005A8B8091F6099091F709A091F809B0915E
:1049D000F9098B8B9C8BAD8BBE8BE090FA09F09024
:1049E000FB090091FC091091FD09609194057091FB
:1049F0009505809196059091970520E030E040E77D
:104A000052E40E945AD14B015C01E7E9F9E0D6017A
:104A1000ED93FC936F85788989899A892B893C89E4
:104A20004D895E89BEEFCB2EB9E0DB2E0E94616618
:104A30000F900F900E943E7381E00E942072C3018C
:104A4000B201A30192010E947AD029813A814B815F
:104A50005C810E9433D4AF81B8856D937D938D9333
:104A60009C931397E985FA85608171818281938196
:104A700020E030E040E85EE30E9433D46093940588
:104A80007093950580939605909397050F920F92DA
:104A9000CDB6DEB60894C11CD11C4090F2095090EE
:104AA000F3096090F4097090F5092091F6093091AE
:104AB000F7094091F8095091F9092F8B388F498FE8
:104AC0005A8FE090FA09F090FB090091FC091091CF
:104AD000FD0920E030E040E752E40E945AD14B014A
:104AE0005C01E7E9F9E0D601ED93FC93C301B20163
:104AF0002F89388D498D5A8DAEEFCA2EA9E0DA2E56
:104B00000E9461660F900F900E943E73AF8CB8A018
:104B100024E839E0A20EB31E69817A818B819C81E1
:104B2000D5012D913D914D915C910E9433D420E0AF
:104B300030E040E050E00E9453D188230CF071C077
:104B4000609168097091690980916A0990916B0977
:104B500020916C0930916D0940916E0950916F0957
:104B6000E0907009F0907109009172091091730939
:104B7000F4E7CF2EF9E0DF2E0E940961F501808174
:104B80009181A281B381EF81F88580839183A28393
:104B9000B3830F920F92CDB6DEB60894C11CD11C20
:104BA0004090F2095090F3096090F4097090F50973
:104BB0002091F6093091F7094091F8095091F909CF
:104BC0002B8F3C8F4D8F5E8FE090FA09F090FB09A0
:104BD0000091FC091091FD09609194057091950573
:104BE000809196059091970520E030E040E752E4EF
:104BF0000E945AD14B015C01E7E9F9E0D601ED933F
:104C0000FC93C301B2012B8D3C8D4D8D5E8DEEEF7B
:104C1000CE2EE9E0DE2E0E9461660F900F900E947A
:104C20003E73CD80DE80CC0CDD1CCC0CDD1CF6018F
:104C3000E357FA4F6591759185919491F601E85883
:104C4000F64F80809180A280B380A50194010E94DC
:104C50007AD07B018C01F601E859F64FCB01D801DF
:104C600080839183A283B383F601E756FA4F65915F
:104C7000759185919491B6E76B2EB5E07B2E6C0C07
:104C80007D1CA50194010E947AD0D3016D937D9380
:104C90008D939C931397F601EB55FA4F659175919F
:104CA00085919491A2E86A2EA5E07A2E6C0C7D1C69
:104CB000A50194010E947AD0F301608371838283FD
:104CC000938322EF39E0C20ED31EC701D801F6014B
:104CD00080839183A283B38380E090E0A0E0B0E082
:104CE0008093940590939505A0939605B0939705AE
:104CF0000E9419722D813E812057364F81E0D901E3
:104D00008C93A0960FB6F894DEBF0FBECDBFCF91A7
:104D1000DF911F910F91FF90EF90DF90CF90BF90A8
:104D2000AF909F908F907F906F905F904F903F904B
:104D30002F900895CF92DF92EF92FF920F931F93DF
:104D4000CF93DF93EE24FF24E6ECF5E0D4908AE0E5
:104D5000C82E38C0488159816A817B8184E29CE0F9
:104D600022E030E00E94F04A9D2DE6ECF5E008C01C
:104D70008091C00085FFFCCF9093C600319694913E
:104D80009923B1F70F5F1F4F2C960330110511F7D0
:104D9000E0E0F2E007C08091C00085FFFCCF3196D3
:104DA0009093C60090819923B1F78091C00085FF50
:104DB000FCCFC092C6000894E11CF11C83E0E81609
:104DC000F10451F0E701CC0FDD1FCC0FDD1FCA55F8
:104DD000D64F00E010E0BECFDF91CF911F910F9131
:104DE000FF90EF90DF90CF900895FC01949108C060
:104DF0008091C00085FFFCCF9093C60031969491BE
:104E00009923B1F784E29CE022E030E00E94F04A6E
:104E10000895682F2091070A3091080A80E690E0F3
:104E2000AC01249FC001259F900D349F900D11244B
:104E30008D5E954F70E00E94D5119C019093120AEF
:104E40008093110A80E0232B09F081E00895FC0192
:104E5000949108C08091C00085FFFCCF9093C6005C
:104E6000319694919923B1F784E29CE02AE030E0F6
:104E70000E94C14908958F929F92AF92BF92CF92A4
:104E8000DF92EF92FF920F931F9388E995E00E94C3
:104E900069CC81E00E94207290E7C92E99E0D92E5A
:104EA0008090700990907109A0907209B090730978
:104EB00082E00E9409737B018C016091660570910C
:104EC0006705809168059091690520E030E040E237
:104ED00051E40E945AD16093940570939505809394
:104EE00096059093970580E090E0A0E2B1EC809366
:104EF000FA099093FB09A093FC09B093FD090E9465
:104F00005C1D0E943E730E94197280E00E94207214
:104F100082E00E940973E61AF70A080B190BC80110
:104F2000B7010E94F5D12091520E3091530E40915D
:104F3000540E5091550E0E945AD19B01AC01C501EF
:104F4000B4010E9479D060937009709371098093C5
:104F5000720990937309C60108970E94711C6091B1
:104F60009A0970919B0980919C0990919D092091CB
:104F70009E0930919F094091A0095091A109E090AC
:104F8000A209F090A3090091A4091091A509E4E0F9
:104F9000F0E0CE0EDF1E0E9409611F910F91FF907D
:104FA000EF90DF90CF90BF90AF909F908F9008953B
:104FB0006F927F928F929F92AF92BF92CF92DF9229
:104FC000EF92FF920F931F935B016C0139014A012D
:104FD000609168097091690980916A0990916B09E3
:104FE00020916C0930916D0940916E0950916F09C3
:104FF0000E94AD22E0907009F09071090091720951
:1050000010917309C601B501A40193010E94AD225C
:105010000E943B271091700900917109F09072096C
:10502000E0907309E2ECF5E0949108C08091C00033
:1050300085FFFCCF9093C600319694919923B1F7E8
:10504000EDEBF5E0949108C08091C00085FFFCCFA6
:105050009093C600319694919923B1F784E29CE035
:10506000B601A50122E030E00E94F04AE8EBF5E04D
:10507000949108C08091C00085FFFCCF9093C6003A
:10508000319694919923B1F784E29CE0B401A30195
:1050900022E030E00E94F04AE3EBF5E0949108C092
:1050A0008091C00085FFFCCF9093C600319694910B
:1050B0009923B1F784E29CE0212F302FEF2DFE2DB4
:1050C000A901BF0122E030E00E94F04AE1EBF5E0E7
:1050D000949108C08091C00085FFFCCF9093C600DA
:1050E000319694919923B1F7212F302F4F2D5E2DBA
:1050F000B901CA011F910F91FF90EF90DF90CF90FF
:10510000BF90AF909F908F907F906F900895809107
:10511000110A9091120A019660E070E04AE050E0B6
:105120000E943D1008958091110A9091120A0196F3
:1051300060E070E00E94DD0E0895CF93DF93EC01F4
:10514000809197098093D50984E50E9409278823D7
:1051500009F46FC00E9493280E94C7D1262F609344
:10516000D509662309F465C0EFE4F2E0949108C024
:105170008091C00085FFFCCF9093C600319694913A
:105180009923B1F7C936D10599F0CA36D10524F46F
:10519000C836D105F1F50FC0CD36D10531F0CA3D85
:1051A000D105B9F5E1E0F2E031C0E8E1F2E023C079
:1051B000EFE2F2E015C0E6E4F2E007C08091C00043
:1051C00085FFFCCF31969093C60090819923B1F76B
:1051D00020C08091C00085FFFCCF31969093C6001F
:1051E00090819923B1F715C08091C00085FFFCCF55
:1051F00031969093C60090819923B1F70AC08091AF
:10520000C00085FFFCCF31969093C6009081992312
:10521000B1F784E29CE0622F40E050E00E94CE496A
:105220008091C00085FFFCCF8AE08093C60081E0BA
:1052300001C080E0DF91CF910895AF92BF92CF92ED
:10524000DF92EF92FF920F931F93CF93DF9328E6A5
:10525000E22E29E0F22EC2EFD9E000E010E0F801E2
:10526000E450FA4F80810E940927882339F10E9477
:1052700093285B016C01F801EE59F64F8081882379
:1052800011F061E002C06091020A70E0882777FDAA
:105290008095982F0E94F5D1F701208131814281BC
:1052A00053810E9433D49B01AC01C601B5010E9419
:1052B0007AD0688379838A839B8309C0F7018081D0
:1052C0009181A281B38188839983AA83BB830F5F75
:1052D0001F4F84E090E0E80EF91E2496043011057B
:1052E00009F0BDCF86E40E9409278823E1F00E94DF
:1052F00093287B018C016093030A7093040A8093C6
:10530000050A9093060A20E030E040E050E00E9459
:1053100061D3181644F4E0929405F0929505009339
:10532000960510939705DF91CF911F910F91FF90F4
:10533000EF90DF90CF90BF90AF9008950E941D290D
:1053400089E40E940927882359F00E9493286093DA
:10535000E6097093E7098093E8099093E9090CC086
:1053600080E090E0A0E0B0E08093E6099093E70948
:10537000A093E809B093E9098AE40E9409278823E9
:1053800059F00E9493286093EA097093EB09809387
:10539000EC099093ED09089580E090E0A0E0B0E082
:1053A0008093EA099093EB09A093EC09B093ED097F
:1053B00008952F923F924F925F926F927F928F92B9
:1053C0009F92AF92BF92CF92DF92EF92FF920F9394
:1053D0001F93DF93CF93CDB7DEB7C655D0400FB63E
:1053E000F894DEBF0FBECDBF87E40E940927882353
:1053F00009F46EC60E9493280E94C2D16C317105D7
:1054000099F16D317105ACF46230710509F442C057
:105410006330710524F477239CF50C940E416330BE
:10542000710509F43FC06430710511F00C940E4110
:1054300044C06A35710509F4DCC56B35710554F457
:105440006D31710509F470C26E31710511F00C9463
:105450000E41F5C46B35710509F4CFC56C35710586
:1054600011F00C940E41CEC516EA412E19E0512ED2
:10547000BFE16B2E712C6C0E7D1E8201F30167C0A3
:105480008091D209882331F40E941D290E94E61FD1
:105490000C941A418091D209882321F40E949E29FC
:1054A00081E007C08091D209882339F40E949E29A7
:1054B00080E00E94B41B0C941A4189E695E00E949A
:1054C00022C980E50E940927882321F4EE24FF24C5
:1054D000870106C00E9493280E94C7D17B018C01DE
:1054E00083E50E940927882361F00E94932820E029
:1054F00030E04AE754E40E9433D40E94C7D17B01D4
:105500008C010E943E730E9411155B016C01AE0C70
:10551000BF1CC01ED11E0E9411156093DE0970933E
:10552000DF098093E0099093E10908C00E94BB7FE6
:105530000E94421B0E94FBC90E945ECF0E9411156F
:105540006A157B058C059D0588F30C940E41D801E6
:105550002D913D914D915C9113972083318342832E
:10556000538314962D913D914D915C91179724830F
:1055700035834683578318962D913D914D915C91CB
:105580001B972087318742875387045F1F4F3C96C4
:10559000B9E00A3C1B07D9F688E995E00E9469CC7E
:1055A000F801B4970F2EF0E0EF2EF0E0FF2EF0E0C0
:1055B0000F2FF0E01F2FF02DE082F1820283138382
:1055C000E486F58606871787E08EF18E028F138FAB
:1055D000349629E0E23BF20779F7809194059091A7
:1055E0009505A0919605B091970580930D0A90932B
:1055F0000E0AA0930F0AB093100A80916E05909145
:105600006F05909367098093660984E690E0909314
:105610006F0580936E050E9411156093DE097093EB
:10562000DF098093E0099093E10981E00E942072F4
:105630008091680990916909A0916A09B0916B09FC
:105640008093F2099093F309A093F409B093F509BC
:1056500080916C0990916D09A0916E09B0916F09CC
:105660008093F6099093F709A093F809B093F9098C
:105670008091700990917109A0917209B09173099C
:105680008093FA099093FB09A093FC09B093FD095C
:105690008091740990917509A0917609B09177096C
:1056A0008093FE099093FF09A093000AB093010A2A
:1056B000E0929405F0929505009396051093970556
:1056C000E0926809F092690900936A0910936B09E6
:1056D000E0926C09F0926D0900936E0910936F09C6
:1056E000E0927009F09271090093720910937309A6
:1056F00060E070E080E090E09B01AC017B018C01F8
:10570000A4E7CA2EA9E0DA2E0E94096180E090E8A1
:10571000A4EFB3E48093F2099093F309A093F40902
:10572000B093F5098093F6099093F709A093F809CF
:10573000B093F9098093FA099093FB09A093FC09AF
:10574000B093FD0960915E0570915F0580916005E1
:10575000909161052DE232EB4DED5FE30E9433D471
:1057600060939405709395058093960590939705A3
:105770000F920F920DB71EB70F5F1F4F20E030E062
:1057800040E752E40E945AD14B015C0187E999E05D
:10579000D8018D939C9360E070E884EF93E49B01C3
:1057A000AC017B018C01FEEFCF2EF9E0DF2E0E94D1
:1057B00061660F900F900E943E730E941972809153
:1057C000F2099091F309A091F409B091F509809341
:1057D000680990936909A0936A09B0936B09809155
:1057E000F6099091F709A091F809B091F909809311
:1057F0006C0990936D09A0936E09B0936F09809125
:10580000FA099091FB09A091FC09B091FD098093E0
:10581000700990937109A0937209B093730980E0A5
:1058200090E00E948D2381E090E00E948D2382E031
:1058300090E00E948D2388E699E00E94711C60919F
:105840009A0970919B0980919C0990919D092091E2
:105850009E0930919F094091A0095091A109E090C3
:10586000A209F090A3090091A4091091A509E4E709
:10587000CE2EE9E0DE2E0E9409619E012D5B3F4F96
:10588000F30180819181A281B381F20180839183B0
:10589000A283B383F30184819581A681B781F2014C
:1058A00084839583A683B783F30180859185A28540
:1058B000B385F20180879187A287B3874CE050E0DF
:1058C000640E751E440E551E62167306C9F680E0FE
:1058D0000E94207280910D0A90910E0AA0910F0AE9
:1058E000B091100A8093940590939505A093960526
:1058F000B0939705809166099091670990936F0521
:1059000080936E050E9411156093DE097093DF0984
:105910008093E0099093E1090E94197285E595E072
:105920000E9422C90C940E410E943E7388E995E0C2
:105930000E9469CCE6EAF9E080E090E0A0E0B0E007
:1059400080839183A283B38384879587A687B78753
:10595000808F918FA28FB38F349659E0E23BF50789
:1059600079F70E9404238091940590919505A09168
:105970009605B091970580930D0A90930E0AA09317
:105980000F0AB093100A80916E0590916F05909365
:1059900067098093660984E690E090936F05809391
:1059A0006E050E9411156093DE097093DF098093E4
:1059B000E0099093E1098091660590916705A091B7
:1059C0006805B09169058093940590939505A0931F
:1059D0009605B09397058AE50E940927882329F444
:1059E00063E373E383EB9EE308C00E94932823E301
:1059F00033E343EB5EE30E947AD067966CAF7DAFF2
:105A00008EAF9FAF679763961FAE1EAE639761968A
:105A10001FAE1EAE619786EB9FEF27969FAF8EAFAE
:105A200027972796AEADBFAD2797BD01882777FD95
:105A30008095982F0E94F5D12B013C016096BFAD57
:105A40006097B0FD0DC082E090E0EFEFFFEF2F9682
:105A5000FFAFEEAF2F972D96FFAFEEAF2D970EC095
:105A600080E090E023E030E02F963FAF2EAF2F97FD
:105A700041E050E02D965FAF4EAF2D972D96AEAD25
:105A8000BFAD2D97EAE4F0E0AE9FB001AF9F700D7F
:105A9000BE9F700D112429967FAF6EAF29978E9F00
:105AA00090018F9F300D9E9F300D11242A5430405D
:105AB00025963FAF2EAF25971D01220C331C2A0ED1
:105AC0003B1E220C331C220C331C4C01880C991CED
:105AD000880E991E61964EAD5FAD6197840E951E3E
